{
  "contractName": "TodoList",
  "abi": [
    {
      "constant": true,
      "inputs": [
        {
          "name": "",
          "type": "uint256"
        }
      ],
      "name": "tasks",
      "outputs": [
        {
          "name": "id",
          "type": "uint256"
        },
        {
          "name": "name",
          "type": "string"
        },
        {
          "name": "father",
          "type": "string"
        },
        {
          "name": "bloodg",
          "type": "string"
        },
        {
          "name": "age",
          "type": "uint256"
        },
        {
          "name": "weight",
          "type": "uint256"
        },
        {
          "name": "height",
          "type": "uint256"
        },
        {
          "name": "phone",
          "type": "uint256"
        },
        {
          "name": "gender",
          "type": "string"
        }
      ],
      "payable": false,
      "stateMutability": "view",
      "type": "function",
      "signature": "0x8d977672"
    },
    {
      "constant": true,
      "inputs": [],
      "name": "taskCount",
      "outputs": [
        {
          "name": "",
          "type": "uint256"
        }
      ],
      "payable": false,
      "stateMutability": "view",
      "type": "function",
      "signature": "0xb6cb58a5"
    },
    {
      "constant": true,
      "inputs": [
        {
          "name": "",
          "type": "uint256"
        }
      ],
      "name": "otp",
      "outputs": [
        {
          "name": "",
          "type": "uint256"
        }
      ],
      "payable": false,
      "stateMutability": "view",
      "type": "function",
      "signature": "0xddf6c06d"
    },
    {
      "inputs": [],
      "payable": false,
      "stateMutability": "nonpayable",
      "type": "constructor",
      "signature": "constructor"
    },
    {
      "anonymous": false,
      "inputs": [
        {
          "indexed": false,
          "name": "id",
          "type": "uint256"
        },
        {
          "indexed": false,
          "name": "name",
          "type": "string"
        },
        {
          "indexed": false,
          "name": "father",
          "type": "string"
        },
        {
          "indexed": false,
          "name": "bloodg",
          "type": "string"
        },
        {
          "indexed": false,
          "name": "age",
          "type": "uint256"
        },
        {
          "indexed": false,
          "name": "weight",
          "type": "uint256"
        },
        {
          "indexed": false,
          "name": "height",
          "type": "uint256"
        },
        {
          "indexed": false,
          "name": "phone",
          "type": "uint256"
        },
        {
          "indexed": false,
          "name": "gender",
          "type": "string"
        }
      ],
      "name": "TaskCreated",
      "type": "event",
      "signature": "0x86bad42c4997c749981ddb2e2ca655c3603acae44b161e409915606d6b695dd9"
    },
    {
      "anonymous": false,
      "inputs": [
        {
          "indexed": false,
          "name": "id",
          "type": "uint256"
        }
      ],
      "name": "taskaccessed",
      "type": "event",
      "signature": "0xa3d0557b93e32bb93197fd3e591ae203888bacbc0fd0e931126336b5ec522d21"
    },
    {
      "constant": false,
      "inputs": [
        {
          "name": "_id",
          "type": "uint256"
        }
      ],
      "name": "retTask",
      "outputs": [],
      "payable": false,
      "stateMutability": "nonpayable",
      "type": "function",
      "signature": "0x7af05882"
    },
    {
      "constant": false,
      "inputs": [
        {
          "name": "_name",
          "type": "string"
        },
        {
          "name": "_father",
          "type": "string"
        },
        {
          "name": "_bloodg",
          "type": "string"
        },
        {
          "name": "_age",
          "type": "uint256"
        },
        {
          "name": "_weight",
          "type": "uint256"
        },
        {
          "name": "_height",
          "type": "uint256"
        },
        {
          "name": "_phone",
          "type": "uint256"
        },
        {
          "name": "_gender",
          "type": "string"
        }
      ],
      "name": "createTask",
      "outputs": [],
      "payable": false,
      "stateMutability": "nonpayable",
      "type": "function",
      "signature": "0x399f6563"
    }
  ],
  "bytecode": "0x60806040526000805560006001553480156200001a57600080fd5b50620001186040805190810160405280600281526020017f4d650000000000000000000000000000000000000000000000000000000000008152506040805190810160405280600681526020017f46617468657200000000000000000000000000000000000000000000000000008152506040805190810160405280600381526020017f41422b0000000000000000000000000000000000000000000000000000000000815250600c6019606464024ce300c76040805190810160405280600181526020017f4d000000000000000000000000000000000000000000000000000000000000008152506200011e640100000000026401000000009004565b6200055e565b6000805460010181556200013c606464010000000062000457810204565b6000848152600360209081526040808320849055805161012081018252835481528083018e81528183018e9052606082018d9052608082018c905260a082018b905260c082018a905260e0820189905261010082018890528585526002845291909320835181559051805194955092939092620001c1926001850192910190620004b9565b5060408201518051620001df916002840191602090910190620004b9565b5060608201518051620001fd916003840191602090910190620004b9565b506080820151600482015560a0820151600582015560c0820151600682015560e08201516007820155610100820151805162000244916008840191602090910190620004b9565b509050507f86bad42c4997c749981ddb2e2ca655c3603acae44b161e409915606d6b695dd96000548a8a8a8a8a8a8a8a604051808a81526020018060200180602001806020018981526020018881526020018781526020018681526020018060200185810385528d818151815260200191508051906020019080838360005b83811015620002dd578181015183820152602001620002c3565b50505050905090810190601f1680156200030b5780820380516001836020036101000a031916815260200191505b5085810384528c5181528c516020918201918e019080838360005b838110156200034057818101518382015260200162000326565b50505050905090810190601f1680156200036e5780820380516001836020036101000a031916815260200191505b5085810383528b5181528b516020918201918d019080838360005b83811015620003a357818101518382015260200162000389565b50505050905090810190601f168015620003d15780820380516001836020036101000a031916815260200191505b50858103825286518152865160209182019188019080838360005b8381101562000406578181015183820152602001620003ec565b50505050905090810190601f168015620004345780820380516001836020036101000a031916815260200191505b509d505050505050505050505050505060405180910390a1505050505050505050565b6001805481019081905560408051426020808301919091526c0100000000000000000000000033028284015260548083019490945282518083039094018452607490910190915281519101206000908290811515620004b257fe5b0692915050565b828054600181600116156101000203166002900490600052602060002090601f016020900481019282601f10620004fc57805160ff19168380011785556200052c565b828001600101855582156200052c579182015b828111156200052c5782518255916020019190600101906200050f565b506200053a9291506200053e565b5090565b6200055b91905b808211156200053a576000815560010162000545565b90565b610c53806200056e6000396000f3fe60806040526004361061006c5763ffffffff7c0100000000000000000000000000000000000000000000000000000000600035041663399f656381146100715780637af05882146102d45780638d977672146102fe578063b6cb58a5146104f5578063ddf6c06d1461051c575b600080fd5b34801561007d57600080fd5b506102d2600480360361010081101561009557600080fd5b8101906020810181356401000000008111156100b057600080fd5b8201836020820111156100c257600080fd5b803590602001918460018302840111640100000000831117156100e457600080fd5b91908080601f016020809104026020016040519081016040528093929190818152602001838380828437600092019190915250929594936020810193503591505064010000000081111561013757600080fd5b82018360208201111561014957600080fd5b8035906020019184600183028401116401000000008311171561016b57600080fd5b91908080601f01602080910402602001604051908101604052809392919081815260200183838082843760009201919091525092959493602081019350359150506401000000008111156101be57600080fd5b8201836020820111156101d057600080fd5b803590602001918460018302840111640100000000831117156101f257600080fd5b91908080601f016020809104026020016040519081016040528093929190818152602001838380828437600092019190915250929584359560208601359560408101359550606081013594509192509060a08101906080013564010000000081111561025d57600080fd5b82018360208201111561026f57600080fd5b8035906020019184600183028401116401000000008311171561029157600080fd5b91908080601f016020809104026020016040519081016040528093929190818152602001838380828437600092019190915250929550610546945050505050565b005b3480156102e057600080fd5b506102d2600480360360208110156102f757600080fd5b5035610860565b34801561030a57600080fd5b506103286004803603602081101561032157600080fd5b5035610896565b604051808a81526020018060200180602001806020018981526020018881526020018781526020018681526020018060200185810385528d818151815260200191508051906020019080838360005b8381101561038f578181015183820152602001610377565b50505050905090810190601f1680156103bc5780820380516001836020036101000a031916815260200191505b5085810384528c5181528c516020918201918e019080838360005b838110156103ef5781810151838201526020016103d7565b50505050905090810190601f16801561041c5780820380516001836020036101000a031916815260200191505b5085810383528b5181528b516020918201918d019080838360005b8381101561044f578181015183820152602001610437565b50505050905090810190601f16801561047c5780820380516001836020036101000a031916815260200191505b50858103825286518152865160209182019188019080838360005b838110156104af578181015183820152602001610497565b50505050905090810190601f1680156104dc5780820380516001836020036101000a031916815260200191505b509d505050505050505050505050505060405180910390f35b34801561050157600080fd5b5061050a610b13565b60408051918252519081900360200190f35b34801561052857600080fd5b5061050a6004803603602081101561053f57600080fd5b5035610b19565b6000805460010181556105596064610b2b565b6000848152600360209081526040808320849055805161012081018252835481528083018e81528183018e9052606082018d9052608082018c905260a082018b905260c082018a905260e08201899052610100820188905285855260028452919093208351815590518051949550929390926105dc926001850192910190610b8c565b50604082015180516105f8916002840191602090910190610b8c565b5060608201518051610614916003840191602090910190610b8c565b506080820151600482015560a0820151600582015560c0820151600682015560e082015160078201556101008201518051610659916008840191602090910190610b8c565b509050507f86bad42c4997c749981ddb2e2ca655c3603acae44b161e409915606d6b695dd96000548a8a8a8a8a8a8a8a604051808a81526020018060200180602001806020018981526020018881526020018781526020018681526020018060200185810385528d818151815260200191508051906020019080838360005b838110156106f05781810151838201526020016106d8565b50505050905090810190601f16801561071d5780820380516001836020036101000a031916815260200191505b5085810384528c5181528c516020918201918e019080838360005b83811015610750578181015183820152602001610738565b50505050905090810190601f16801561077d5780820380516001836020036101000a031916815260200191505b5085810383528b5181528b516020918201918d019080838360005b838110156107b0578181015183820152602001610798565b50505050905090810190601f1680156107dd5780820380516001836020036101000a031916815260200191505b50858103825286518152865160209182019188019080838360005b838110156108105781810151838201526020016107f8565b50505050905090810190601f16801561083d5780820380516001836020036101000a031916815260200191505b509d505050505050505050505050505060405180910390a1505050505050505050565b6040805182815290517fa3d0557b93e32bb93197fd3e591ae203888bacbc0fd0e931126336b5ec522d219181900360200190a150565b60026020818152600092835260409283902080546001808301805487519281161561010002600019011695909504601f81018590048502820185019096528581529094919390929091908301828280156109315780601f1061090657610100808354040283529160200191610931565b820191906000526020600020905b81548152906001019060200180831161091457829003601f168201915b50505060028085018054604080516020601f60001961010060018716150201909416959095049283018590048502810185019091528181529596959450909250908301828280156109c35780601f10610998576101008083540402835291602001916109c3565b820191906000526020600020905b8154815290600101906020018083116109a657829003601f168201915b5050505060038301805460408051602060026001851615610100026000190190941693909304601f8101849004840282018401909252818152949594935090830182828015610a535780601f10610a2857610100808354040283529160200191610a53565b820191906000526020600020905b815481529060010190602001808311610a3657829003601f168201915b505050505090806004015490806005015490806006015490806007015490806008018054600181600116156101000203166002900480601f016020809104026020016040519081016040528092919081815260200182805460018160011615610100020316600290048015610b095780601f10610ade57610100808354040283529160200191610b09565b820191906000526020600020905b815481529060010190602001808311610aec57829003601f168201915b5050505050905089565b60005481565b60036020526000908152604090205481565b6001805481019081905560408051426020808301919091526c0100000000000000000000000033028284015260548083019490945282518083039094018452607490910190915281519101206000908290811515610b8557fe5b0692915050565b828054600181600116156101000203166002900490600052602060002090601f016020900481019282601f10610bcd57805160ff1916838001178555610bfa565b82800160010185558215610bfa579182015b82811115610bfa578251825591602001919060010190610bdf565b50610c06929150610c0a565b5090565b610c2491905b80821115610c065760008155600101610c10565b9056fea165627a7a72305820d057bb6a7048ac3fd8e4656c4d6549242e09dca1ec4c4a3af0f35a3aa9cc39910029",
  "source": "pragma solidity ^0.5.0;\n\ncontract TodoList {\n  uint public taskCount = 0;\n\n  //Random Number generator\n  uint randNonce = 0;\n  function randMod(uint _modulus) internal returns(uint)\n  {\n    // increase nonce\n    randNonce++; \n    return uint(keccak256(abi.encodePacked(now,\n                                            msg.sender,\n                                            randNonce))) % _modulus;\n  }\n\n  struct Task {\n    uint id;\n\n    string name;\n    string father;\n    \n    string bloodg;\n   \n    uint age;\n    uint weight;\n    uint height;\n    uint phone;\n\n    string gender;\n    // bool completed;\n    \n  }\n\n  mapping(uint => Task) public tasks;\n  mapping(uint => uint) public otp;\n\n  event TaskCreated(\n    uint id,\n    \n    string name,\n    string father,\n    string bloodg,\n\n    uint age,\n    uint weight,\n    uint height,\n    uint phone,\n\n    string gender\n    \n  );\n\n  // event TaskCompleted(\n  //   uint id,\n  //   bool completed\n  // );\n\n  event taskaccessed(\n    uint id\n  );\n\n  constructor() public {\n    createTask(\"Me\",\"Father\",\"AB+\",12,25,100,9879879879,\"M\");\n  }\n\n  function retTask(uint _id) public {\n    emit taskaccessed(_id);\n     \n  }\n\n\n  function createTask(string memory _name, \n                      string memory _father,\n                      string memory _bloodg,\n                      uint _age,\n                      uint _weight,\n                      uint _height,\n                      uint _phone,\n                      string memory _gender\n                      ) public {\n\n    taskCount ++;\n    uint rand = randMod(100);\n    otp[_phone] = rand;\n    tasks[rand] = Task(taskCount, _name, _father,  _bloodg, _age, _weight, _height, _phone, _gender);\n    emit TaskCreated(taskCount, _name, _father,  _bloodg, _age, _weight, _height, _phone, _gender);\n  }\n\n  // function toggleCompleted(uint _id) public {\n  //   Task memory _task = tasks[_id];\n  //   _task.completed = !_task.completed;\n  //   tasks[_id] = _task;\n  //   emit TaskCompleted(_id, _task.completed);\n  // }\n}\n",
  "sourcePath": "/Users/priyanshisharma/Desktop/untitled folder 2/HackStack22/contracts/TodoList.sol",
  "compiler": {
    "name": "solc",
    "version": "0.5.0+commit.1d4f565a.Emscripten.clang"
  },
  "schemaVersion": "3.0.2",
  "updatedAt": "2022-04-10T11:52:32.913Z",
  "devdoc": {
    "methods": {}
  },
  "userdoc": {
    "methods": {}
  }
}