{
  "contractName": "TodoList",
  "abi": [
    {
      "constant": true,
      "inputs": [
        {
          "name": "",
          "type": "uint256"
        }
      ],
      "name": "tasks",
      "outputs": [
        {
          "name": "id",
          "type": "uint256"
        },
        {
          "name": "name",
          "type": "string"
        },
        {
          "name": "father",
          "type": "string"
        },
        {
          "name": "mother",
          "type": "string"
        },
        {
          "name": "bloodg",
          "type": "string"
        },
        {
          "name": "age",
          "type": "uint256"
        },
        {
          "name": "weight",
          "type": "uint256"
        },
        {
          "name": "height",
          "type": "uint256"
        },
        {
          "name": "gender",
          "type": "bool"
        },
        {
          "name": "completed",
          "type": "bool"
        }
      ],
      "payable": false,
      "stateMutability": "view",
      "type": "function",
      "signature": "0x8d977672"
    },
    {
      "constant": true,
      "inputs": [],
      "name": "taskCount",
      "outputs": [
        {
          "name": "",
          "type": "uint256"
        }
      ],
      "payable": false,
      "stateMutability": "view",
      "type": "function",
      "signature": "0xb6cb58a5"
    },
    {
      "inputs": [],
      "payable": false,
      "stateMutability": "nonpayable",
      "type": "constructor",
      "signature": "constructor"
    },
    {
      "anonymous": false,
      "inputs": [
        {
          "indexed": false,
          "name": "id",
          "type": "uint256"
        },
        {
          "indexed": false,
          "name": "name",
          "type": "string"
        },
        {
          "indexed": false,
          "name": "father",
          "type": "string"
        },
        {
          "indexed": false,
          "name": "mother",
          "type": "string"
        },
        {
          "indexed": false,
          "name": "bloodg",
          "type": "string"
        },
        {
          "indexed": false,
          "name": "age",
          "type": "uint256"
        },
        {
          "indexed": false,
          "name": "weight",
          "type": "uint256"
        },
        {
          "indexed": false,
          "name": "height",
          "type": "uint256"
        },
        {
          "indexed": false,
          "name": "gender",
          "type": "bool"
        },
        {
          "indexed": false,
          "name": "completed",
          "type": "bool"
        }
      ],
      "name": "TaskCreated",
      "type": "event",
      "signature": "0x0ea4be5d6d7c4a75471b70589ff7ac9ab2120540effdfe1d6d583384995b1e7e"
    },
    {
      "anonymous": false,
      "inputs": [
        {
          "indexed": false,
          "name": "id",
          "type": "uint256"
        },
        {
          "indexed": false,
          "name": "completed",
          "type": "bool"
        }
      ],
      "name": "TaskCompleted",
      "type": "event",
      "signature": "0xe21fa966ca5cd02748c0752352d18c48165e61cb55b4c29cccf924b5a95fcff1"
    },
    {
      "constant": false,
      "inputs": [
        {
          "name": "_name",
          "type": "string"
        },
        {
          "name": "_father",
          "type": "string"
        },
        {
          "name": "_mother",
          "type": "string"
        },
        {
          "name": "_bloodg",
          "type": "string"
        },
        {
          "name": "_age",
          "type": "uint256"
        },
        {
          "name": "_weight",
          "type": "uint256"
        },
        {
          "name": "_height",
          "type": "uint256"
        },
        {
          "name": "_gender",
          "type": "bool"
        }
      ],
      "name": "createTask",
      "outputs": [],
      "payable": false,
      "stateMutability": "nonpayable",
      "type": "function",
      "signature": "0x0f2f6540"
    },
    {
      "constant": false,
      "inputs": [
        {
          "name": "_id",
          "type": "uint256"
        }
      ],
      "name": "toggleCompleted",
      "outputs": [],
      "payable": false,
      "stateMutability": "nonpayable",
      "type": "function",
      "signature": "0x455f5024"
    }
  ],
  "bytecode": "0x6080604052600080553480156200001557600080fd5b506200010f6040805190810160405280600281526020017f4d650000000000000000000000000000000000000000000000000000000000008152506040805190810160405280600681526020017f46617468657200000000000000000000000000000000000000000000000000008152506040805190810160405280600681526020017f4d6f7468657200000000000000000000000000000000000000000000000000008152506040805190810160405280600381526020017f41422b0000000000000000000000000000000000000000000000000000000000815250600c60196064600162000115640100000000026401000000009004565b6200051b565b600080546001908101808355604080516101408101825282815260208082018e81528284018e9052606083018d9052608083018c905260a083018b905260c083018a905260e0830189905287151561010084015261012083018790529386528481529190942084518155915180519293620001999390850192919091019062000476565b5060408201518051620001b791600284019160209091019062000476565b5060608201518051620001d591600384019160209091019062000476565b5060808201518051620001f391600484019160209091019062000476565b5060a0820151816005015560c0820151816006015560e082015181600701556101008201518160080160006101000a81548160ff0219169083151502179055506101208201518160080160016101000a81548160ff0219169083151502179055509050507f0ea4be5d6d7c4a75471b70589ff7ac9ab2120540effdfe1d6d583384995b1e7e60005489898989898989896000604051808b8152602001806020018060200180602001806020018a8152602001898152602001888152602001871515151581526020018615151515815260200185810385528e818151815260200191508051906020019080838360005b83811015620002fc578181015183820152602001620002e2565b50505050905090810190601f1680156200032a5780820380516001836020036101000a031916815260200191505b5085810384528d5181528d516020918201918f019080838360005b838110156200035f57818101518382015260200162000345565b50505050905090810190601f1680156200038d5780820380516001836020036101000a031916815260200191505b5085810383528c5181528c516020918201918e019080838360005b83811015620003c2578181015183820152602001620003a8565b50505050905090810190601f168015620003f05780820380516001836020036101000a031916815260200191505b5085810382528b5181528b516020918201918d019080838360005b83811015620004255781810151838201526020016200040b565b50505050905090810190601f168015620004535780820380516001836020036101000a031916815260200191505b509e50505050505050505050505050505060405180910390a15050505050505050565b828054600181600116156101000203166002900490600052602060002090601f016020900481019282601f10620004b957805160ff1916838001178555620004e9565b82800160010185558215620004e9579182015b82811115620004e9578251825591602001919060010190620004cc565b50620004f7929150620004fb565b5090565b6200051891905b80821115620004f7576000815560010162000502565b90565b610fe7806200052b6000396000f3fe6080604052600436106100615763ffffffff7c01000000000000000000000000000000000000000000000000000000006000350416630f2f65408114610066578063455f5024146102c45780638d977672146102ee578063b6cb58a5146104f4575b600080fd5b34801561007257600080fd5b506102c2600480360361010081101561008a57600080fd5b8101906020810181356401000000008111156100a557600080fd5b8201836020820111156100b757600080fd5b803590602001918460018302840111640100000000831117156100d957600080fd5b91908080601f016020809104026020016040519081016040528093929190818152602001838380828437600092019190915250929594936020810193503591505064010000000081111561012c57600080fd5b82018360208201111561013e57600080fd5b8035906020019184600183028401116401000000008311171561016057600080fd5b91908080601f01602080910402602001604051908101604052809392919081815260200183838082843760009201919091525092959493602081019350359150506401000000008111156101b357600080fd5b8201836020820111156101c557600080fd5b803590602001918460018302840111640100000000831117156101e757600080fd5b91908080601f016020809104026020016040519081016040528093929190818152602001838380828437600092019190915250929594936020810193503591505064010000000081111561023a57600080fd5b82018360208201111561024c57600080fd5b8035906020019184600183028401116401000000008311171561026e57600080fd5b91908080601f0160208091040260200160405190810160405280939291908181526020018383808284376000920191909152509295505082359350505060208101359060408101359060600135151561051b565b005b3480156102d057600080fd5b506102c2600480360360208110156102e757600080fd5b5035610868565b3480156102fa57600080fd5b506103186004803603602081101561031157600080fd5b5035610c45565b604051808b8152602001806020018060200180602001806020018a8152602001898152602001888152602001871515151581526020018615151515815260200185810385528e818151815260200191508051906020019080838360005b8381101561038d578181015183820152602001610375565b50505050905090810190601f1680156103ba5780820380516001836020036101000a031916815260200191505b5085810384528d5181528d516020918201918f019080838360005b838110156103ed5781810151838201526020016103d5565b50505050905090810190601f16801561041a5780820380516001836020036101000a031916815260200191505b5085810383528c5181528c516020918201918e019080838360005b8381101561044d578181015183820152602001610435565b50505050905090810190601f16801561047a5780820380516001836020036101000a031916815260200191505b5085810382528b5181528b516020918201918d019080838360005b838110156104ad578181015183820152602001610495565b50505050905090810190601f1680156104da5780820380516001836020036101000a031916815260200191505b509e50505050505050505050505050505060405180910390f35b34801561050057600080fd5b50610509610ec2565b60408051918252519081900360200190f35b600080546001908101808355604080516101408101825282815260208082018e81528284018e9052606083018d9052608083018c905260a083018b905260c083018a905260e083018990528715156101008401526101208301879052938652848152919094208451815591518051929361059d93908501929190910190610ec8565b50604082015180516105b9916002840191602090910190610ec8565b50606082015180516105d5916003840191602090910190610ec8565b50608082015180516105f1916004840191602090910190610ec8565b5060a0820151816005015560c0820151816006015560e082015181600701556101008201518160080160006101000a81548160ff0219169083151502179055506101208201518160080160016101000a81548160ff0219169083151502179055509050507f0ea4be5d6d7c4a75471b70589ff7ac9ab2120540effdfe1d6d583384995b1e7e60005489898989898989896000604051808b8152602001806020018060200180602001806020018a8152602001898152602001888152602001871515151581526020018615151515815260200185810385528e818151815260200191508051906020019080838360005b838110156106f85781810151838201526020016106e0565b50505050905090810190601f1680156107255780820380516001836020036101000a031916815260200191505b5085810384528d5181528d516020918201918f019080838360005b83811015610758578181015183820152602001610740565b50505050905090810190601f1680156107855780820380516001836020036101000a031916815260200191505b5085810383528c5181528c516020918201918e019080838360005b838110156107b85781810151838201526020016107a0565b50505050905090810190601f1680156107e55780820380516001836020036101000a031916815260200191505b5085810382528b5181528b516020918201918d019080838360005b83811015610818578181015183820152602001610800565b50505050905090810190601f1680156108455780820380516001836020036101000a031916815260200191505b509e50505050505050505050505050505060405180910390a15050505050505050565b610870610f46565b6000828152600160208181526040928390208351610140810185528154815281840180548651600296821615610100026000190190911695909504601f8101859004850286018501909652858552909491938584019390929083018282801561091a5780601f106108ef5761010080835404028352916020019161091a565b820191906000526020600020905b8154815290600101906020018083116108fd57829003601f168201915b5050509183525050600282810180546040805160206001841615610100026000190190931694909404601f810183900483028501830190915280845293810193908301828280156109ac5780601f10610981576101008083540402835291602001916109ac565b820191906000526020600020905b81548152906001019060200180831161098f57829003601f168201915b505050918352505060038201805460408051602060026001851615610100026000190190941693909304601f8101849004840282018401909252818152938201939291830182828015610a405780601f10610a1557610100808354040283529160200191610a40565b820191906000526020600020905b815481529060010190602001808311610a2357829003601f168201915b505050918352505060048201805460408051602060026001851615610100026000190190941693909304601f8101849004840282018401909252818152938201939291830182828015610ad45780601f10610aa957610100808354040283529160200191610ad4565b820191906000526020600020905b815481529060010190602001808311610ab757829003601f168201915b5050509183525050600582015460208083019190915260068301546040808401919091526007840154606084015260089093015460ff8082161515608085015261010090910416151560a09092019190915261012083018051159052600085815260018083529290208351815583820151805194955085949193610b5e9390850192910190610ec8565b5060408201518051610b7a916002840191602090910190610ec8565b5060608201518051610b96916003840191602090910190610ec8565b5060808201518051610bb2916004840191602090910190610ec8565b5060a0820151600582015560c0820151600682015560e08201516007820155610100808301516008909201805461012094850151151590920261ff001993151560ff19909316929092179290921617905581015160408051848152911515602083015280517fe21fa966ca5cd02748c0752352d18c48165e61cb55b4c29cccf924b5a95fcff19281900390910190a15050565b600160208181526000928352604092839020805481840180548651600296821615610100026000190190911695909504601f81018590048502860185019096528585529094919392909190830182828015610ce15780601f10610cb657610100808354040283529160200191610ce1565b820191906000526020600020905b815481529060010190602001808311610cc457829003601f168201915b50505060028085018054604080516020601f6000196101006001871615020190941695909504928301859004850281018501909152818152959695945090925090830182828015610d735780601f10610d4857610100808354040283529160200191610d73565b820191906000526020600020905b815481529060010190602001808311610d5657829003601f168201915b5050505060038301805460408051602060026001851615610100026000190190941693909304601f8101849004840282018401909252818152949594935090830182828015610e035780601f10610dd857610100808354040283529160200191610e03565b820191906000526020600020905b815481529060010190602001808311610de657829003601f168201915b5050505060048301805460408051602060026001851615610100026000190190941693909304601f8101849004840282018401909252818152949594935090830182828015610e935780601f10610e6857610100808354040283529160200191610e93565b820191906000526020600020905b815481529060010190602001808311610e7657829003601f168201915b505050506005830154600684015460078501546008909501549394919390925060ff808216916101009004168a565b60005481565b828054600181600116156101000203166002900490600052602060002090601f016020900481019282601f10610f0957805160ff1916838001178555610f36565b82800160010185558215610f36579182015b82811115610f36578251825591602001919060010190610f1b565b50610f42929150610f9e565b5090565b6101406040519081016040528060008152602001606081526020016060815260200160608152602001606081526020016000815260200160008152602001600081526020016000151581526020016000151581525090565b610fb891905b80821115610f425760008155600101610fa4565b9056fea165627a7a723058209d83c2a2caf2fd816f8fe64fa9ea7e00b7b54347a020f3b45f5c04f0fc02062d0029",
  "source": "pragma solidity ^0.5.0;\n\ncontract TodoList {\n  uint public taskCount = 0;\n\n  struct Task {\n    uint id;\n\n    string name;\n    string father;\n    string mother;\n    string bloodg;\n   \n    uint age;\n    uint weight;\n    uint height;\n    \n    bool gender;\n    bool completed;\n    \n  }\n\n  mapping(uint => Task) public tasks;\n\n  event TaskCreated(\n    uint id,\n\n    string name,\n    string father,\n    string mother,\n    string bloodg,\n\n    uint age,\n    uint weight,\n    uint height,\n    \n    bool gender,\n    bool completed\n    \n  );\n\n  event TaskCompleted(\n    uint id,\n    bool completed\n  );\n\n  constructor() public {\n    createTask(\"Me\",\"Father\",\"Mother\",\"AB+\",12,25,100,true);\n  }\n\n  function createTask(string memory _name, \n                      string memory _father,\n                      string memory _mother,\n                      string memory _bloodg,\n                      uint _age,\n                      uint _weight,\n                      uint _height,\n                      bool _gender\n                      ) public {\n\n    taskCount ++;\n    tasks[taskCount] = Task(taskCount, _name, _father, _mother, _bloodg, _age, _weight, _height, _gender, false);\n    emit TaskCreated(taskCount, _name, _father, _mother, _bloodg, _age, _weight, _height, _gender, false);\n  }\n\n  function toggleCompleted(uint _id) public {\n    Task memory _task = tasks[_id];\n    _task.completed = !_task.completed;\n    tasks[_id] = _task;\n    emit TaskCompleted(_id, _task.completed);\n  }\n}\n",
  "sourcePath": "E:/FreshWebApp/2/contracts/TodoList.sol",
  "compiler": {
    "name": "solc",
    "version": "0.5.0+commit.1d4f565a.Emscripten.clang"
  },
  "schemaVersion": "3.0.1",
  "updatedAt": "2022-04-09T21:38:05.143Z",
  "devdoc": {
    "methods": {}
  },
  "userdoc": {
    "methods": {}
  }
}