{
  "contractName": "TodoList",
  "abi": [
    {
      "constant": true,
      "inputs": [
        {
          "name": "",
          "type": "uint256"
        }
      ],
      "name": "tasks",
      "outputs": [
        {
          "name": "id",
          "type": "uint256"
        },
        {
          "name": "name",
          "type": "string"
        },
        {
          "name": "father",
          "type": "string"
        },
        {
          "name": "mother",
          "type": "string"
        },
        {
          "name": "bloodg",
          "type": "string"
        },
        {
          "name": "age",
          "type": "uint256"
        },
        {
          "name": "weight",
          "type": "uint256"
        },
        {
          "name": "height",
          "type": "uint256"
        },
        {
          "name": "phone",
          "type": "uint256"
        },
        {
          "name": "gender",
          "type": "string"
        }
      ],
      "payable": false,
      "stateMutability": "view",
      "type": "function",
      "signature": "0x8d977672"
    },
    {
      "constant": true,
      "inputs": [],
      "name": "taskCount",
      "outputs": [
        {
          "name": "",
          "type": "uint256"
        }
      ],
      "payable": false,
      "stateMutability": "view",
      "type": "function",
      "signature": "0xb6cb58a5"
    },
    {
      "inputs": [],
      "payable": false,
      "stateMutability": "nonpayable",
      "type": "constructor",
      "signature": "constructor"
    },
    {
      "anonymous": false,
      "inputs": [
        {
          "indexed": false,
          "name": "id",
          "type": "uint256"
        },
        {
          "indexed": false,
          "name": "name",
          "type": "string"
        },
        {
          "indexed": false,
          "name": "father",
          "type": "string"
        },
        {
          "indexed": false,
          "name": "mother",
          "type": "string"
        },
        {
          "indexed": false,
          "name": "bloodg",
          "type": "string"
        },
        {
          "indexed": false,
          "name": "age",
          "type": "uint256"
        },
        {
          "indexed": false,
          "name": "weight",
          "type": "uint256"
        },
        {
          "indexed": false,
          "name": "height",
          "type": "uint256"
        },
        {
          "indexed": false,
          "name": "phone",
          "type": "uint256"
        },
        {
          "indexed": false,
          "name": "gender",
          "type": "string"
        }
      ],
      "name": "TaskCreated",
      "type": "event",
      "signature": "0xd6ed4d3dccb185239c5dc709426bc0d5e26c8f5d5db72a4a9f8fb63cc2033b1f"
    },
    {
      "anonymous": false,
      "inputs": [
        {
          "indexed": false,
          "name": "id",
          "type": "uint256"
        }
      ],
      "name": "taskaccessed",
      "type": "event",
      "signature": "0xa3d0557b93e32bb93197fd3e591ae203888bacbc0fd0e931126336b5ec522d21"
    },
    {
      "constant": false,
      "inputs": [
        {
          "name": "_id",
          "type": "uint256"
        }
      ],
      "name": "retTask",
      "outputs": [],
      "payable": false,
      "stateMutability": "nonpayable",
      "type": "function",
      "signature": "0x7af05882"
    },
    {
      "constant": false,
      "inputs": [
        {
          "name": "_name",
          "type": "string"
        },
        {
          "name": "_father",
          "type": "string"
        },
        {
          "name": "_mother",
          "type": "string"
        },
        {
          "name": "_bloodg",
          "type": "string"
        },
        {
          "name": "_age",
          "type": "uint256"
        },
        {
          "name": "_weight",
          "type": "uint256"
        },
        {
          "name": "_height",
          "type": "uint256"
        },
        {
          "name": "_phone",
          "type": "uint256"
        },
        {
          "name": "_gender",
          "type": "string"
        }
      ],
      "name": "createTask",
      "outputs": [],
      "payable": false,
      "stateMutability": "nonpayable",
      "type": "function",
      "signature": "0x412f237a"
    }
  ],
  "bytecode": "0x6080604052600080553480156200001557600080fd5b50620001496040805190810160405280600281526020017f4d650000000000000000000000000000000000000000000000000000000000008152506040805190810160405280600681526020017f46617468657200000000000000000000000000000000000000000000000000008152506040805190810160405280600681526020017f4d6f7468657200000000000000000000000000000000000000000000000000008152506040805190810160405280600381526020017f41422b0000000000000000000000000000000000000000000000000000000000815250600c60196064640227e5157b6040805190810160405280600181526020017f4d000000000000000000000000000000000000000000000000000000000000008152506200014f640100000000026401000000009004565b62000599565b600080546001908101808355604080516101408101825282815260208082018f81528284018f9052606083018e9052608083018d905260a083018c905260c083018b905260e083018a9052610100830189905261012083018890529386528481529190942084518155915180519293620001d293908501929190910190620004f4565b5060408201518051620001f0916002840191602090910190620004f4565b50606082015180516200020e916003840191602090910190620004f4565b50608082015180516200022c916004840191602090910190620004f4565b5060a0820151600582015560c0820151600682015560e082015160078201556101008201516008820155610120820151805162000274916009840191602090910190620004f4565b509050507fd6ed4d3dccb185239c5dc709426bc0d5e26c8f5d5db72a4a9f8fb63cc2033b1f6000548a8a8a8a8a8a8a8a8a604051808b8152602001806020018060200180602001806020018a81526020018981526020018881526020018781526020018060200186810386528f818151815260200191508051906020019080838360005b8381101562000312578181015183820152602001620002f8565b50505050905090810190601f168015620003405780820380516001836020036101000a031916815260200191505b5086810385528e818151815260200191508051906020019080838360005b83811015620003785781810151838201526020016200035e565b50505050905090810190601f168015620003a65780820380516001836020036101000a031916815260200191505b5086810384528d5181528d516020918201918f019080838360005b83811015620003db578181015183820152602001620003c1565b50505050905090810190601f168015620004095780820380516001836020036101000a031916815260200191505b5086810383528c5181528c516020918201918e019080838360005b838110156200043e57818101518382015260200162000424565b50505050905090810190601f1680156200046c5780820380516001836020036101000a031916815260200191505b50868103825287518152875160209182019189019080838360005b83811015620004a157818101518382015260200162000487565b50505050905090810190601f168015620004cf5780820380516001836020036101000a031916815260200191505b509f5050505050505050505050505050505060405180910390a1505050505050505050565b828054600181600116156101000203166002900490600052602060002090601f016020900481019282601f106200053757805160ff191683800117855562000567565b8280016001018555821562000567579182015b82811115620005675782518255916020019190600101906200054a565b506200057592915062000579565b5090565b6200059691905b8082111562000575576000815560010162000580565b90565b610d9e80620005a96000396000f3fe6080604052600436106100615763ffffffff7c0100000000000000000000000000000000000000000000000000000000600035041663412f237a81146100665780637af05882146103505780638d9776721461037a578063b6cb58a5146105da575b600080fd5b34801561007257600080fd5b5061034e600480360361012081101561008a57600080fd5b8101906020810181356401000000008111156100a557600080fd5b8201836020820111156100b757600080fd5b803590602001918460018302840111640100000000831117156100d957600080fd5b91908080601f016020809104026020016040519081016040528093929190818152602001838380828437600092019190915250929594936020810193503591505064010000000081111561012c57600080fd5b82018360208201111561013e57600080fd5b8035906020019184600183028401116401000000008311171561016057600080fd5b91908080601f01602080910402602001604051908101604052809392919081815260200183838082843760009201919091525092959493602081019350359150506401000000008111156101b357600080fd5b8201836020820111156101c557600080fd5b803590602001918460018302840111640100000000831117156101e757600080fd5b91908080601f016020809104026020016040519081016040528093929190818152602001838380828437600092019190915250929594936020810193503591505064010000000081111561023a57600080fd5b82018360208201111561024c57600080fd5b8035906020019184600183028401116401000000008311171561026e57600080fd5b91908080601f016020809104026020016040519081016040528093929190818152602001838380828437600092019190915250929584359560208601359560408101359550606081013594509192509060a0810190608001356401000000008111156102d957600080fd5b8201836020820111156102eb57600080fd5b8035906020019184600183028401116401000000008311171561030d57600080fd5b91908080601f016020809104026020016040519081016040528093929190818152602001838380828437600092019190915250929550610601945050505050565b005b34801561035c57600080fd5b5061034e6004803603602081101561037357600080fd5b503561098d565b34801561038657600080fd5b506103a46004803603602081101561039d57600080fd5b50356109c3565b604051808b8152602001806020018060200180602001806020018a81526020018981526020018881526020018781526020018060200186810386528f818151815260200191508051906020019080838360005b8381101561040f5781810151838201526020016103f7565b50505050905090810190601f16801561043c5780820380516001836020036101000a031916815260200191505b5086810385528e818151815260200191508051906020019080838360005b8381101561047257818101518382015260200161045a565b50505050905090810190601f16801561049f5780820380516001836020036101000a031916815260200191505b5086810384528d5181528d516020918201918f019080838360005b838110156104d25781810151838201526020016104ba565b50505050905090810190601f1680156104ff5780820380516001836020036101000a031916815260200191505b5086810383528c5181528c516020918201918e019080838360005b8381101561053257818101518382015260200161051a565b50505050905090810190601f16801561055f5780820380516001836020036101000a031916815260200191505b50868103825287518152875160209182019189019080838360005b8381101561059257818101518382015260200161057a565b50505050905090810190601f1680156105bf5780820380516001836020036101000a031916815260200191505b509f5050505050505050505050505050505060405180910390f35b3480156105e657600080fd5b506105ef610cd1565b60408051918252519081900360200190f35b600080546001908101808355604080516101408101825282815260208082018f81528284018f9052606083018e9052608083018d905260a083018c905260c083018b905260e083018a905261010083018990526101208301889052938652848152919094208451815591518051929361068293908501929190910190610cd7565b506040820151805161069e916002840191602090910190610cd7565b50606082015180516106ba916003840191602090910190610cd7565b50608082015180516106d6916004840191602090910190610cd7565b5060a0820151600582015560c0820151600682015560e082015160078201556101008201516008820155610120820151805161071c916009840191602090910190610cd7565b509050507fd6ed4d3dccb185239c5dc709426bc0d5e26c8f5d5db72a4a9f8fb63cc2033b1f6000548a8a8a8a8a8a8a8a8a604051808b8152602001806020018060200180602001806020018a81526020018981526020018881526020018781526020018060200186810386528f818151815260200191508051906020019080838360005b838110156107b85781810151838201526020016107a0565b50505050905090810190601f1680156107e55780820380516001836020036101000a031916815260200191505b5086810385528e818151815260200191508051906020019080838360005b8381101561081b578181015183820152602001610803565b50505050905090810190601f1680156108485780820380516001836020036101000a031916815260200191505b5086810384528d5181528d516020918201918f019080838360005b8381101561087b578181015183820152602001610863565b50505050905090810190601f1680156108a85780820380516001836020036101000a031916815260200191505b5086810383528c5181528c516020918201918e019080838360005b838110156108db5781810151838201526020016108c3565b50505050905090810190601f1680156109085780820380516001836020036101000a031916815260200191505b50868103825287518152875160209182019189019080838360005b8381101561093b578181015183820152602001610923565b50505050905090810190601f1680156109685780820380516001836020036101000a031916815260200191505b509f5050505050505050505050505050505060405180910390a1505050505050505050565b6040805182815290517fa3d0557b93e32bb93197fd3e591ae203888bacbc0fd0e931126336b5ec522d219181900360200190a150565b600160208181526000928352604092839020805481840180548651600296821615610100026000190190911695909504601f81018590048502860185019096528585529094919392909190830182828015610a5f5780601f10610a3457610100808354040283529160200191610a5f565b820191906000526020600020905b815481529060010190602001808311610a4257829003601f168201915b50505060028085018054604080516020601f6000196101006001871615020190941695909504928301859004850281018501909152818152959695945090925090830182828015610af15780601f10610ac657610100808354040283529160200191610af1565b820191906000526020600020905b815481529060010190602001808311610ad457829003601f168201915b5050505060038301805460408051602060026001851615610100026000190190941693909304601f8101849004840282018401909252818152949594935090830182828015610b815780601f10610b5657610100808354040283529160200191610b81565b820191906000526020600020905b815481529060010190602001808311610b6457829003601f168201915b5050505060048301805460408051602060026001851615610100026000190190941693909304601f8101849004840282018401909252818152949594935090830182828015610c115780601f10610be657610100808354040283529160200191610c11565b820191906000526020600020905b815481529060010190602001808311610bf457829003601f168201915b505050505090806005015490806006015490806007015490806008015490806009018054600181600116156101000203166002900480601f016020809104026020016040519081016040528092919081815260200182805460018160011615610100020316600290048015610cc75780601f10610c9c57610100808354040283529160200191610cc7565b820191906000526020600020905b815481529060010190602001808311610caa57829003601f168201915b505050505090508a565b60005481565b828054600181600116156101000203166002900490600052602060002090601f016020900481019282601f10610d1857805160ff1916838001178555610d45565b82800160010185558215610d45579182015b82811115610d45578251825591602001919060010190610d2a565b50610d51929150610d55565b5090565b610d6f91905b80821115610d515760008155600101610d5b565b9056fea165627a7a723058207078d3d9b995f9f889114d38598a7dfd76b365d0833f6b4e27bbc9c64258d3540029",
  "source": "pragma solidity ^0.5.0;\n\ncontract TodoList {\n  uint public taskCount = 0;\n\n  struct Task {\n    uint id;\n\n    string name;\n    string father;\n    string mother;\n    string bloodg;\n   \n    uint age;\n    uint weight;\n    uint height;\n    uint phone;\n\n    string gender;\n    // bool completed;\n    \n  }\n\n  mapping(uint => Task) public tasks;\n\n  event TaskCreated(\n    uint id,\n\n    string name,\n    string father,\n    string mother,\n    string bloodg,\n\n    uint age,\n    uint weight,\n    uint height,\n    uint phone,\n\n    string gender\n    \n  );\n\n  // event TaskCompleted(\n  //   uint id,\n  //   bool completed\n  // );\n\n  event taskaccessed(\n    uint id\n  );\n\n  constructor() public {\n    createTask(\"Me\",\"Father\",\"Mother\",\"AB+\",12,25,100,9259259259,\"M\");\n  }\n\n  function retTask(uint _id) public {\n    emit taskaccessed(_id);\n     \n  }\n\n  function createTask(string memory _name, \n                      string memory _father,\n                      string memory _mother,\n                      string memory _bloodg,\n                      uint _age,\n                      uint _weight,\n                      uint _height,\n                      uint _phone,\n                      string memory _gender\n                      ) public {\n\n    taskCount ++;\n    tasks[taskCount] = Task(taskCount, _name, _father, _mother, _bloodg, _age, _weight, _height, _phone, _gender);\n    emit TaskCreated(taskCount, _name, _father, _mother, _bloodg, _age, _weight, _height, _phone, _gender);\n  }\n\n  // function toggleCompleted(uint _id) public {\n  //   Task memory _task = tasks[_id];\n  //   _task.completed = !_task.completed;\n  //   tasks[_id] = _task;\n  //   emit TaskCompleted(_id, _task.completed);\n  // }\n}\n",
  "sourcePath": "E:/FreshWebApp/2/contracts/TodoList.sol",
  "compiler": {
    "name": "solc",
    "version": "0.5.0+commit.1d4f565a.Emscripten.clang"
  },
  "schemaVersion": "3.0.1",
  "updatedAt": "2022-04-10T10:14:24.467Z",
  "devdoc": {
    "methods": {}
  },
  "userdoc": {
    "methods": {}
  }
}